{
	"VotingContract.sol": {
		"TwoCandidateVoting": {
			"abi": [
				{
					"inputs": [],
					"stateMutability": "nonpayable",
					"type": "constructor"
				},
				{
					"inputs": [],
					"name": "getVotes",
					"outputs": [
						{
							"internalType": "uint256",
							"name": "",
							"type": "uint256"
						},
						{
							"internalType": "uint256",
							"name": "",
							"type": "uint256"
						}
					],
					"stateMutability": "view",
					"type": "function"
				},
				{
					"inputs": [
						{
							"internalType": "enum TwoCandidateVoting.Status",
							"name": "_status",
							"type": "uint8"
						}
					],
					"name": "toggleVoting",
					"outputs": [],
					"stateMutability": "nonpayable",
					"type": "function"
				},
				{
					"inputs": [
						{
							"internalType": "uint256",
							"name": "_candidateId",
							"type": "uint256"
						}
					],
					"name": "vote",
					"outputs": [],
					"stateMutability": "nonpayable",
					"type": "function"
				},
				{
					"inputs": [],
					"name": "votingStatus",
					"outputs": [
						{
							"internalType": "enum TwoCandidateVoting.Status",
							"name": "",
							"type": "uint8"
						}
					],
					"stateMutability": "view",
					"type": "function"
				}
			],
			"devdoc": {
				"kind": "dev",
				"methods": {},
				"version": 1
			},
			"evm": {
				"assembly": "    /* \"VotingContract.sol\":75:1255  contract TwoCandidateVoting{... */\n  mstore(0x40, 0x80)\n    /* \"VotingContract.sol\":311:397  constructor() {... */\n  callvalue\n  dup1\n  iszero\n  tag_1\n  jumpi\n  revert(0x00, 0x00)\ntag_1:\n  pop\n    /* \"VotingContract.sol\":344:354  msg.sender */\n  caller\n    /* \"VotingContract.sol\":336:341  admin */\n  0x00\n  0x00\n    /* \"VotingContract.sol\":336:354  admin = msg.sender */\n  0x0100\n  exp\n  dup2\n  sload\n  dup2\n  0xffffffffffffffffffffffffffffffffffffffff\n  mul\n  not\n  and\n  swap1\n  dup4\n  0xffffffffffffffffffffffffffffffffffffffff\n  and\n  mul\n  or\n  swap1\n  sstore\n  pop\n    /* \"VotingContract.sol\":380:389  Status.ON */\n  0x01\n    /* \"VotingContract.sol\":365:377  votingStatus */\n  0x00\n  0x14\n    /* \"VotingContract.sol\":365:389  votingStatus = Status.ON */\n  0x0100\n  exp\n  dup2\n  sload\n  dup2\n  0xff\n  mul\n  not\n  and\n  swap1\n  dup4\n  0x01\n  dup2\n  gt\n  iszero\n  tag_4\n  jumpi\n  tag_5\n  tag_6\n  jump\t// in\ntag_5:\ntag_4:\n  mul\n  or\n  swap1\n  sstore\n  pop\n    /* \"VotingContract.sol\":75:1255  contract TwoCandidateVoting{... */\n  jump(tag_7)\n    /* \"#utility.yul\":7:187   */\ntag_6:\n    /* \"#utility.yul\":55:132   */\n  0x4e487b7100000000000000000000000000000000000000000000000000000000\n    /* \"#utility.yul\":52:53   */\n  0x00\n    /* \"#utility.yul\":45:133   */\n  mstore\n    /* \"#utility.yul\":152:156   */\n  0x21\n    /* \"#utility.yul\":149:150   */\n  0x04\n    /* \"#utility.yul\":142:157   */\n  mstore\n    /* \"#utility.yul\":176:180   */\n  0x24\n    /* \"#utility.yul\":173:174   */\n  0x00\n    /* \"#utility.yul\":166:181   */\n  revert\n    /* \"VotingContract.sol\":75:1255  contract TwoCandidateVoting{... */\ntag_7:\n  dataSize(sub_0)\n  dup1\n  dataOffset(sub_0)\n  0x00\n  codecopy\n  0x00\n  return\nstop\n\nsub_0: assembly {\n        /* \"VotingContract.sol\":75:1255  contract TwoCandidateVoting{... */\n      mstore(0x40, 0x80)\n      callvalue\n      dup1\n      iszero\n      tag_1\n      jumpi\n      revert(0x00, 0x00)\n    tag_1:\n      pop\n      jumpi(tag_2, lt(calldatasize, 0x04))\n      shr(0xe0, calldataload(0x00))\n      dup1\n      0x0121b93f\n      eq\n      tag_3\n      jumpi\n      dup1\n      0x0dc96015\n      eq\n      tag_4\n      jumpi\n      dup1\n      0x19f41a40\n      eq\n      tag_5\n      jumpi\n      dup1\n      0xb6890867\n      eq\n      tag_6\n      jumpi\n    tag_2:\n      revert(0x00, 0x00)\n        /* \"VotingContract.sol\":757:1131  function vote(uint _candidateId) public votingOpen {... */\n    tag_3:\n      tag_7\n      0x04\n      dup1\n      calldatasize\n      sub\n      dup2\n      add\n      swap1\n      tag_8\n      swap2\n      swap1\n      tag_9\n      jump\t// in\n    tag_8:\n      tag_10\n      jump\t// in\n    tag_7:\n      stop\n        /* \"VotingContract.sol\":1139:1252  function getVotes() public view returns (uint, uint) {... */\n    tag_4:\n      tag_11\n      tag_12\n      jump\t// in\n    tag_11:\n      mload(0x40)\n      tag_13\n      swap3\n      swap2\n      swap1\n      tag_14\n      jump\t// in\n    tag_13:\n      mload(0x40)\n      dup1\n      swap2\n      sub\n      swap1\n      return\n        /* \"VotingContract.sol\":170:196  Status public votingStatus */\n    tag_5:\n      tag_15\n      tag_16\n      jump\t// in\n    tag_15:\n      mload(0x40)\n      tag_17\n      swap2\n      swap1\n      tag_18\n      jump\t// in\n    tag_17:\n      mload(0x40)\n      dup1\n      swap2\n      sub\n      swap1\n      return\n        /* \"VotingContract.sol\":653:749  function toggleVoting(Status _status) public onlyAdmin {... */\n    tag_6:\n      tag_19\n      0x04\n      dup1\n      calldatasize\n      sub\n      dup2\n      add\n      swap1\n      tag_20\n      swap2\n      swap1\n      tag_21\n      jump\t// in\n    tag_20:\n      tag_22\n      jump\t// in\n    tag_19:\n      stop\n        /* \"VotingContract.sol\":757:1131  function vote(uint _candidateId) public votingOpen {... */\n    tag_10:\n        /* \"VotingContract.sol\":588:597  Status.ON */\n      0x01\n        /* \"VotingContract.sol\":572:597  votingStatus == Status.ON */\n      dup1\n      dup2\n      gt\n      iszero\n      tag_24\n      jumpi\n      tag_25\n      tag_26\n      jump\t// in\n    tag_25:\n    tag_24:\n        /* \"VotingContract.sol\":572:584  votingStatus */\n      0x00\n      0x14\n      swap1\n      sload\n      swap1\n      0x0100\n      exp\n      swap1\n      div\n      0xff\n      and\n        /* \"VotingContract.sol\":572:597  votingStatus == Status.ON */\n      0x01\n      dup2\n      gt\n      iszero\n      tag_27\n      jumpi\n      tag_28\n      tag_26\n      jump\t// in\n    tag_28:\n    tag_27:\n      eq\n        /* \"VotingContract.sol\":564:625  require(votingStatus == Status.ON, \"Voting is currently OFF\") */\n      tag_29\n      jumpi\n      mload(0x40)\n      0x08c379a000000000000000000000000000000000000000000000000000000000\n      dup2\n      mstore\n      0x04\n      add\n      tag_30\n      swap1\n      tag_31\n      jump\t// in\n    tag_30:\n      mload(0x40)\n      dup1\n      swap2\n      sub\n      swap1\n      revert\n    tag_29:\n        /* \"VotingContract.sol\":828:836  hasVoted */\n      0x03\n        /* \"VotingContract.sol\":828:848  hasVoted[msg.sender] */\n      0x00\n        /* \"VotingContract.sol\":837:847  msg.sender */\n      caller\n        /* \"VotingContract.sol\":828:848  hasVoted[msg.sender] */\n      0xffffffffffffffffffffffffffffffffffffffff\n      and\n      0xffffffffffffffffffffffffffffffffffffffff\n      and\n      dup2\n      mstore\n      0x20\n      add\n      swap1\n      dup2\n      mstore\n      0x20\n      add\n      0x00\n      keccak256\n      0x00\n      swap1\n      sload\n      swap1\n      0x0100\n      exp\n      swap1\n      div\n      0xff\n      and\n        /* \"VotingContract.sol\":827:848  !hasVoted[msg.sender] */\n      iszero\n        /* \"VotingContract.sol\":819:875  require(!hasVoted[msg.sender], \"You have already voted\") */\n      tag_33\n      jumpi\n      mload(0x40)\n      0x08c379a000000000000000000000000000000000000000000000000000000000\n      dup2\n      mstore\n      0x04\n      add\n      tag_34\n      swap1\n      tag_35\n      jump\t// in\n    tag_34:\n      mload(0x40)\n      dup1\n      swap2\n      sub\n      swap1\n      revert\n    tag_33:\n        /* \"VotingContract.sol\":910:911  1 */\n      0x01\n        /* \"VotingContract.sol\":894:906  _candidateId */\n      dup2\n        /* \"VotingContract.sol\":894:911  _candidateId == 1 */\n      eq\n        /* \"VotingContract.sol\":894:932  _candidateId == 1 || _candidateId == 2 */\n      dup1\n      tag_36\n      jumpi\n      pop\n        /* \"VotingContract.sol\":931:932  2 */\n      0x02\n        /* \"VotingContract.sol\":915:927  _candidateId */\n      dup2\n        /* \"VotingContract.sol\":915:932  _candidateId == 2 */\n      eq\n        /* \"VotingContract.sol\":894:932  _candidateId == 1 || _candidateId == 2 */\n    tag_36:\n        /* \"VotingContract.sol\":886:954  require(_candidateId == 1 || _candidateId == 2, \"Invalid candidate\") */\n      tag_37\n      jumpi\n      mload(0x40)\n      0x08c379a000000000000000000000000000000000000000000000000000000000\n      dup2\n      mstore\n      0x04\n      add\n      tag_38\n      swap1\n      tag_39\n      jump\t// in\n    tag_38:\n      mload(0x40)\n      dup1\n      swap2\n      sub\n      swap1\n      revert\n    tag_37:\n        /* \"VotingContract.sol\":987:988  1 */\n      0x01\n        /* \"VotingContract.sol\":971:983  _candidateId */\n      dup2\n        /* \"VotingContract.sol\":971:988  _candidateId == 1 */\n      sub\n        /* \"VotingContract.sol\":967:1084  if (_candidateId == 1) {... */\n      tag_40\n      jumpi\n        /* \"VotingContract.sol\":1005:1020  candidate1Votes */\n      0x01\n      0x00\n        /* \"VotingContract.sol\":1005:1022  candidate1Votes++ */\n      dup2\n      sload\n      dup1\n      swap3\n      swap2\n      swap1\n      tag_41\n      swap1\n      tag_42\n      jump\t// in\n    tag_41:\n      swap2\n      swap1\n      pop\n      sstore\n      pop\n        /* \"VotingContract.sol\":967:1084  if (_candidateId == 1) {... */\n      jump(tag_43)\n    tag_40:\n        /* \"VotingContract.sol\":1055:1070  candidate2Votes */\n      0x02\n      0x00\n        /* \"VotingContract.sol\":1055:1072  candidate2Votes++ */\n      dup2\n      sload\n      dup1\n      swap3\n      swap2\n      swap1\n      tag_44\n      swap1\n      tag_42\n      jump\t// in\n    tag_44:\n      swap2\n      swap1\n      pop\n      sstore\n      pop\n        /* \"VotingContract.sol\":967:1084  if (_candidateId == 1) {... */\n    tag_43:\n        /* \"VotingContract.sol\":1119:1123  true */\n      0x01\n        /* \"VotingContract.sol\":1096:1104  hasVoted */\n      0x03\n        /* \"VotingContract.sol\":1096:1116  hasVoted[msg.sender] */\n      0x00\n        /* \"VotingContract.sol\":1105:1115  msg.sender */\n      caller\n        /* \"VotingContract.sol\":1096:1116  hasVoted[msg.sender] */\n      0xffffffffffffffffffffffffffffffffffffffff\n      and\n      0xffffffffffffffffffffffffffffffffffffffff\n      and\n      dup2\n      mstore\n      0x20\n      add\n      swap1\n      dup2\n      mstore\n      0x20\n      add\n      0x00\n      keccak256\n      0x00\n        /* \"VotingContract.sol\":1096:1123  hasVoted[msg.sender] = true */\n      0x0100\n      exp\n      dup2\n      sload\n      dup2\n      0xff\n      mul\n      not\n      and\n      swap1\n      dup4\n      iszero\n      iszero\n      mul\n      or\n      swap1\n      sstore\n      pop\n        /* \"VotingContract.sol\":757:1131  function vote(uint _candidateId) public votingOpen {... */\n      pop\n      jump\t// out\n        /* \"VotingContract.sol\":1139:1252  function getVotes() public view returns (uint, uint) {... */\n    tag_12:\n        /* \"VotingContract.sol\":1180:1184  uint */\n      0x00\n        /* \"VotingContract.sol\":1186:1190  uint */\n      0x00\n        /* \"VotingContract.sol\":1211:1226  candidate1Votes */\n      sload(0x01)\n        /* \"VotingContract.sol\":1228:1243  candidate2Votes */\n      sload(0x02)\n        /* \"VotingContract.sol\":1203:1244  return (candidate1Votes, candidate2Votes) */\n      swap2\n      pop\n      swap2\n      pop\n        /* \"VotingContract.sol\":1139:1252  function getVotes() public view returns (uint, uint) {... */\n      swap1\n      swap2\n      jump\t// out\n        /* \"VotingContract.sol\":170:196  Status public votingStatus */\n    tag_16:\n      0x00\n      0x14\n      swap1\n      sload\n      swap1\n      0x0100\n      exp\n      swap1\n      div\n      0xff\n      and\n      dup2\n      jump\t// out\n        /* \"VotingContract.sol\":653:749  function toggleVoting(Status _status) public onlyAdmin {... */\n    tag_22:\n        /* \"VotingContract.sol\":459:464  admin */\n      0x00\n      0x00\n      swap1\n      sload\n      swap1\n      0x0100\n      exp\n      swap1\n      div\n      0xffffffffffffffffffffffffffffffffffffffff\n      and\n        /* \"VotingContract.sol\":445:464  msg.sender == admin */\n      0xffffffffffffffffffffffffffffffffffffffff\n      and\n        /* \"VotingContract.sol\":445:455  msg.sender */\n      caller\n        /* \"VotingContract.sol\":445:464  msg.sender == admin */\n      0xffffffffffffffffffffffffffffffffffffffff\n      and\n      eq\n        /* \"VotingContract.sol\":437:503  require(msg.sender == admin, \"Only admin can perform this action\") */\n      tag_47\n      jumpi\n      mload(0x40)\n      0x08c379a000000000000000000000000000000000000000000000000000000000\n      dup2\n      mstore\n      0x04\n      add\n      tag_48\n      swap1\n      tag_49\n      jump\t// in\n    tag_48:\n      mload(0x40)\n      dup1\n      swap2\n      sub\n      swap1\n      revert\n    tag_47:\n        /* \"VotingContract.sol\":734:741  _status */\n      dup1\n        /* \"VotingContract.sol\":719:731  votingStatus */\n      0x00\n      0x14\n        /* \"VotingContract.sol\":719:741  votingStatus = _status */\n      0x0100\n      exp\n      dup2\n      sload\n      dup2\n      0xff\n      mul\n      not\n      and\n      swap1\n      dup4\n      0x01\n      dup2\n      gt\n      iszero\n      tag_51\n      jumpi\n      tag_52\n      tag_26\n      jump\t// in\n    tag_52:\n    tag_51:\n      mul\n      or\n      swap1\n      sstore\n      pop\n        /* \"VotingContract.sol\":653:749  function toggleVoting(Status _status) public onlyAdmin {... */\n      pop\n      jump\t// out\n        /* \"#utility.yul\":88:205   */\n    tag_54:\n        /* \"#utility.yul\":197:198   */\n      0x00\n        /* \"#utility.yul\":194:195   */\n      0x00\n        /* \"#utility.yul\":187:199   */\n      revert\n        /* \"#utility.yul\":334:411   */\n    tag_56:\n        /* \"#utility.yul\":371:378   */\n      0x00\n        /* \"#utility.yul\":400:405   */\n      dup2\n        /* \"#utility.yul\":389:405   */\n      swap1\n      pop\n        /* \"#utility.yul\":334:411   */\n      swap2\n      swap1\n      pop\n      jump\t// out\n        /* \"#utility.yul\":417:539   */\n    tag_57:\n        /* \"#utility.yul\":490:514   */\n      tag_82\n        /* \"#utility.yul\":508:513   */\n      dup2\n        /* \"#utility.yul\":490:514   */\n      tag_56\n      jump\t// in\n    tag_82:\n        /* \"#utility.yul\":483:488   */\n      dup2\n        /* \"#utility.yul\":480:515   */\n      eq\n        /* \"#utility.yul\":470:533   */\n      tag_83\n      jumpi\n        /* \"#utility.yul\":529:530   */\n      0x00\n        /* \"#utility.yul\":526:527   */\n      0x00\n        /* \"#utility.yul\":519:531   */\n      revert\n        /* \"#utility.yul\":470:533   */\n    tag_83:\n        /* \"#utility.yul\":417:539   */\n      pop\n      jump\t// out\n        /* \"#utility.yul\":545:684   */\n    tag_58:\n        /* \"#utility.yul\":591:596   */\n      0x00\n        /* \"#utility.yul\":629:635   */\n      dup2\n        /* \"#utility.yul\":616:636   */\n      calldataload\n        /* \"#utility.yul\":607:636   */\n      swap1\n      pop\n        /* \"#utility.yul\":645:678   */\n      tag_85\n        /* \"#utility.yul\":672:677   */\n      dup2\n        /* \"#utility.yul\":645:678   */\n      tag_57\n      jump\t// in\n    tag_85:\n        /* \"#utility.yul\":545:684   */\n      swap3\n      swap2\n      pop\n      pop\n      jump\t// out\n        /* \"#utility.yul\":690:1019   */\n    tag_9:\n        /* \"#utility.yul\":749:755   */\n      0x00\n        /* \"#utility.yul\":798:800   */\n      0x20\n        /* \"#utility.yul\":786:795   */\n      dup3\n        /* \"#utility.yul\":777:784   */\n      dup5\n        /* \"#utility.yul\":773:796   */\n      sub\n        /* \"#utility.yul\":769:801   */\n      slt\n        /* \"#utility.yul\":766:885   */\n      iszero\n      tag_87\n      jumpi\n        /* \"#utility.yul\":804:883   */\n      tag_88\n      tag_54\n      jump\t// in\n    tag_88:\n        /* \"#utility.yul\":766:885   */\n    tag_87:\n        /* \"#utility.yul\":924:925   */\n      0x00\n        /* \"#utility.yul\":949:1002   */\n      tag_89\n        /* \"#utility.yul\":994:1001   */\n      dup5\n        /* \"#utility.yul\":985:991   */\n      dup3\n        /* \"#utility.yul\":974:983   */\n      dup6\n        /* \"#utility.yul\":970:992   */\n      add\n        /* \"#utility.yul\":949:1002   */\n      tag_58\n      jump\t// in\n    tag_89:\n        /* \"#utility.yul\":939:1002   */\n      swap2\n      pop\n        /* \"#utility.yul\":895:1012   */\n      pop\n        /* \"#utility.yul\":690:1019   */\n      swap3\n      swap2\n      pop\n      pop\n      jump\t// out\n        /* \"#utility.yul\":1025:1143   */\n    tag_59:\n        /* \"#utility.yul\":1112:1136   */\n      tag_91\n        /* \"#utility.yul\":1130:1135   */\n      dup2\n        /* \"#utility.yul\":1112:1136   */\n      tag_56\n      jump\t// in\n    tag_91:\n        /* \"#utility.yul\":1107:1110   */\n      dup3\n        /* \"#utility.yul\":1100:1137   */\n      mstore\n        /* \"#utility.yul\":1025:1143   */\n      pop\n      pop\n      jump\t// out\n        /* \"#utility.yul\":1149:1481   */\n    tag_14:\n        /* \"#utility.yul\":1270:1274   */\n      0x00\n        /* \"#utility.yul\":1308:1310   */\n      0x40\n        /* \"#utility.yul\":1297:1306   */\n      dup3\n        /* \"#utility.yul\":1293:1311   */\n      add\n        /* \"#utility.yul\":1285:1311   */\n      swap1\n      pop\n        /* \"#utility.yul\":1321:1392   */\n      tag_93\n        /* \"#utility.yul\":1389:1390   */\n      0x00\n        /* \"#utility.yul\":1378:1387   */\n      dup4\n        /* \"#utility.yul\":1374:1391   */\n      add\n        /* \"#utility.yul\":1365:1371   */\n      dup6\n        /* \"#utility.yul\":1321:1392   */\n      tag_59\n      jump\t// in\n    tag_93:\n        /* \"#utility.yul\":1402:1474   */\n      tag_94\n        /* \"#utility.yul\":1470:1472   */\n      0x20\n        /* \"#utility.yul\":1459:1468   */\n      dup4\n        /* \"#utility.yul\":1455:1473   */\n      add\n        /* \"#utility.yul\":1446:1452   */\n      dup5\n        /* \"#utility.yul\":1402:1474   */\n      tag_59\n      jump\t// in\n    tag_94:\n        /* \"#utility.yul\":1149:1481   */\n      swap4\n      swap3\n      pop\n      pop\n      pop\n      jump\t// out\n        /* \"#utility.yul\":1487:1667   */\n    tag_26:\n        /* \"#utility.yul\":1535:1612   */\n      0x4e487b7100000000000000000000000000000000000000000000000000000000\n        /* \"#utility.yul\":1532:1533   */\n      0x00\n        /* \"#utility.yul\":1525:1613   */\n      mstore\n        /* \"#utility.yul\":1632:1636   */\n      0x21\n        /* \"#utility.yul\":1629:1630   */\n      0x04\n        /* \"#utility.yul\":1622:1637   */\n      mstore\n        /* \"#utility.yul\":1656:1660   */\n      0x24\n        /* \"#utility.yul\":1653:1654   */\n      0x00\n        /* \"#utility.yul\":1646:1661   */\n      revert\n        /* \"#utility.yul\":1673:1786   */\n    tag_60:\n        /* \"#utility.yul\":1754:1755   */\n      0x02\n        /* \"#utility.yul\":1747:1752   */\n      dup2\n        /* \"#utility.yul\":1744:1756   */\n      lt\n        /* \"#utility.yul\":1734:1780   */\n      tag_97\n      jumpi\n        /* \"#utility.yul\":1760:1778   */\n      tag_98\n      tag_26\n      jump\t// in\n    tag_98:\n        /* \"#utility.yul\":1734:1780   */\n    tag_97:\n        /* \"#utility.yul\":1673:1786   */\n      pop\n      jump\t// out\n        /* \"#utility.yul\":1792:1919   */\n    tag_61:\n        /* \"#utility.yul\":1837:1844   */\n      0x00\n        /* \"#utility.yul\":1866:1871   */\n      dup2\n        /* \"#utility.yul\":1855:1871   */\n      swap1\n      pop\n        /* \"#utility.yul\":1872:1913   */\n      tag_100\n        /* \"#utility.yul\":1907:1912   */\n      dup3\n        /* \"#utility.yul\":1872:1913   */\n      tag_60\n      jump\t// in\n    tag_100:\n        /* \"#utility.yul\":1792:1919   */\n      swap2\n      swap1\n      pop\n      jump\t// out\n        /* \"#utility.yul\":1925:2052   */\n    tag_62:\n        /* \"#utility.yul\":1981:1990   */\n      0x00\n        /* \"#utility.yul\":2014:2046   */\n      tag_102\n        /* \"#utility.yul\":2040:2045   */\n      dup3\n        /* \"#utility.yul\":2014:2046   */\n      tag_61\n      jump\t// in\n    tag_102:\n        /* \"#utility.yul\":2001:2046   */\n      swap1\n      pop\n        /* \"#utility.yul\":1925:2052   */\n      swap2\n      swap1\n      pop\n      jump\t// out\n        /* \"#utility.yul\":2058:2201   */\n    tag_63:\n        /* \"#utility.yul\":2151:2194   */\n      tag_104\n        /* \"#utility.yul\":2188:2193   */\n      dup2\n        /* \"#utility.yul\":2151:2194   */\n      tag_62\n      jump\t// in\n    tag_104:\n        /* \"#utility.yul\":2146:2149   */\n      dup3\n        /* \"#utility.yul\":2139:2195   */\n      mstore\n        /* \"#utility.yul\":2058:2201   */\n      pop\n      pop\n      jump\t// out\n        /* \"#utility.yul\":2207:2441   */\n    tag_18:\n        /* \"#utility.yul\":2306:2310   */\n      0x00\n        /* \"#utility.yul\":2344:2346   */\n      0x20\n        /* \"#utility.yul\":2333:2342   */\n      dup3\n        /* \"#utility.yul\":2329:2347   */\n      add\n        /* \"#utility.yul\":2321:2347   */\n      swap1\n      pop\n        /* \"#utility.yul\":2357:2434   */\n      tag_106\n        /* \"#utility.yul\":2431:2432   */\n      0x00\n        /* \"#utility.yul\":2420:2429   */\n      dup4\n        /* \"#utility.yul\":2416:2433   */\n      add\n        /* \"#utility.yul\":2407:2413   */\n      dup5\n        /* \"#utility.yul\":2357:2434   */\n      tag_63\n      jump\t// in\n    tag_106:\n        /* \"#utility.yul\":2207:2441   */\n      swap3\n      swap2\n      pop\n      pop\n      jump\t// out\n        /* \"#utility.yul\":2447:2554   */\n    tag_64:\n        /* \"#utility.yul\":2528:2529   */\n      0x02\n        /* \"#utility.yul\":2521:2526   */\n      dup2\n        /* \"#utility.yul\":2518:2530   */\n      lt\n        /* \"#utility.yul\":2508:2548   */\n      tag_108\n      jumpi\n        /* \"#utility.yul\":2544:2545   */\n      0x00\n        /* \"#utility.yul\":2541:2542   */\n      0x00\n        /* \"#utility.yul\":2534:2546   */\n      revert\n        /* \"#utility.yul\":2508:2548   */\n    tag_108:\n        /* \"#utility.yul\":2447:2554   */\n      pop\n      jump\t// out\n        /* \"#utility.yul\":2560:2715   */\n    tag_65:\n        /* \"#utility.yul\":2614:2619   */\n      0x00\n        /* \"#utility.yul\":2652:2658   */\n      dup2\n        /* \"#utility.yul\":2639:2659   */\n      calldataload\n        /* \"#utility.yul\":2630:2659   */\n      swap1\n      pop\n        /* \"#utility.yul\":2668:2709   */\n      tag_110\n        /* \"#utility.yul\":2703:2708   */\n      dup2\n        /* \"#utility.yul\":2668:2709   */\n      tag_64\n      jump\t// in\n    tag_110:\n        /* \"#utility.yul\":2560:2715   */\n      swap3\n      swap2\n      pop\n      pop\n      jump\t// out\n        /* \"#utility.yul\":2721:3066   */\n    tag_21:\n        /* \"#utility.yul\":2788:2794   */\n      0x00\n        /* \"#utility.yul\":2837:2839   */\n      0x20\n        /* \"#utility.yul\":2825:2834   */\n      dup3\n        /* \"#utility.yul\":2816:2823   */\n      dup5\n        /* \"#utility.yul\":2812:2835   */\n      sub\n        /* \"#utility.yul\":2808:2840   */\n      slt\n        /* \"#utility.yul\":2805:2924   */\n      iszero\n      tag_112\n      jumpi\n        /* \"#utility.yul\":2843:2922   */\n      tag_113\n      tag_54\n      jump\t// in\n    tag_113:\n        /* \"#utility.yul\":2805:2924   */\n    tag_112:\n        /* \"#utility.yul\":2963:2964   */\n      0x00\n        /* \"#utility.yul\":2988:3049   */\n      tag_114\n        /* \"#utility.yul\":3041:3048   */\n      dup5\n        /* \"#utility.yul\":3032:3038   */\n      dup3\n        /* \"#utility.yul\":3021:3030   */\n      dup6\n        /* \"#utility.yul\":3017:3039   */\n      add\n        /* \"#utility.yul\":2988:3049   */\n      tag_65\n      jump\t// in\n    tag_114:\n        /* \"#utility.yul\":2978:3049   */\n      swap2\n      pop\n        /* \"#utility.yul\":2934:3059   */\n      pop\n        /* \"#utility.yul\":2721:3066   */\n      swap3\n      swap2\n      pop\n      pop\n      jump\t// out\n        /* \"#utility.yul\":3072:3241   */\n    tag_66:\n        /* \"#utility.yul\":3156:3167   */\n      0x00\n        /* \"#utility.yul\":3190:3196   */\n      dup3\n        /* \"#utility.yul\":3185:3188   */\n      dup3\n        /* \"#utility.yul\":3178:3197   */\n      mstore\n        /* \"#utility.yul\":3230:3234   */\n      0x20\n        /* \"#utility.yul\":3225:3228   */\n      dup3\n        /* \"#utility.yul\":3221:3235   */\n      add\n        /* \"#utility.yul\":3206:3235   */\n      swap1\n      pop\n        /* \"#utility.yul\":3072:3241   */\n      swap3\n      swap2\n      pop\n      pop\n      jump\t// out\n        /* \"#utility.yul\":3247:3420   */\n    tag_67:\n        /* \"#utility.yul\":3387:3412   */\n      0x566f74696e672069732063757272656e746c79204f4646000000000000000000\n        /* \"#utility.yul\":3383:3384   */\n      0x00\n        /* \"#utility.yul\":3375:3381   */\n      dup3\n        /* \"#utility.yul\":3371:3385   */\n      add\n        /* \"#utility.yul\":3364:3413   */\n      mstore\n        /* \"#utility.yul\":3247:3420   */\n      pop\n      jump\t// out\n        /* \"#utility.yul\":3426:3792   */\n    tag_68:\n        /* \"#utility.yul\":3568:3571   */\n      0x00\n        /* \"#utility.yul\":3589:3656   */\n      tag_118\n        /* \"#utility.yul\":3653:3655   */\n      0x17\n        /* \"#utility.yul\":3648:3651   */\n      dup4\n        /* \"#utility.yul\":3589:3656   */\n      tag_66\n      jump\t// in\n    tag_118:\n        /* \"#utility.yul\":3582:3656   */\n      swap2\n      pop\n        /* \"#utility.yul\":3665:3758   */\n      tag_119\n        /* \"#utility.yul\":3754:3757   */\n      dup3\n        /* \"#utility.yul\":3665:3758   */\n      tag_67\n      jump\t// in\n    tag_119:\n        /* \"#utility.yul\":3783:3785   */\n      0x20\n        /* \"#utility.yul\":3778:3781   */\n      dup3\n        /* \"#utility.yul\":3774:3786   */\n      add\n        /* \"#utility.yul\":3767:3786   */\n      swap1\n      pop\n        /* \"#utility.yul\":3426:3792   */\n      swap2\n      swap1\n      pop\n      jump\t// out\n        /* \"#utility.yul\":3798:4217   */\n    tag_31:\n        /* \"#utility.yul\":3964:3968   */\n      0x00\n        /* \"#utility.yul\":4002:4004   */\n      0x20\n        /* \"#utility.yul\":3991:4000   */\n      dup3\n        /* \"#utility.yul\":3987:4005   */\n      add\n        /* \"#utility.yul\":3979:4005   */\n      swap1\n      pop\n        /* \"#utility.yul\":4051:4060   */\n      dup2\n        /* \"#utility.yul\":4045:4049   */\n      dup2\n        /* \"#utility.yul\":4041:4061   */\n      sub\n        /* \"#utility.yul\":4037:4038   */\n      0x00\n        /* \"#utility.yul\":4026:4035   */\n      dup4\n        /* \"#utility.yul\":4022:4039   */\n      add\n        /* \"#utility.yul\":4015:4062   */\n      mstore\n        /* \"#utility.yul\":4079:4210   */\n      tag_121\n        /* \"#utility.yul\":4205:4209   */\n      dup2\n        /* \"#utility.yul\":4079:4210   */\n      tag_68\n      jump\t// in\n    tag_121:\n        /* \"#utility.yul\":4071:4210   */\n      swap1\n      pop\n        /* \"#utility.yul\":3798:4217   */\n      swap2\n      swap1\n      pop\n      jump\t// out\n        /* \"#utility.yul\":4223:4395   */\n    tag_69:\n        /* \"#utility.yul\":4363:4387   */\n      0x596f75206861766520616c726561647920766f74656400000000000000000000\n        /* \"#utility.yul\":4359:4360   */\n      0x00\n        /* \"#utility.yul\":4351:4357   */\n      dup3\n        /* \"#utility.yul\":4347:4361   */\n      add\n        /* \"#utility.yul\":4340:4388   */\n      mstore\n        /* \"#utility.yul\":4223:4395   */\n      pop\n      jump\t// out\n        /* \"#utility.yul\":4401:4767   */\n    tag_70:\n        /* \"#utility.yul\":4543:4546   */\n      0x00\n        /* \"#utility.yul\":4564:4631   */\n      tag_124\n        /* \"#utility.yul\":4628:4630   */\n      0x16\n        /* \"#utility.yul\":4623:4626   */\n      dup4\n        /* \"#utility.yul\":4564:4631   */\n      tag_66\n      jump\t// in\n    tag_124:\n        /* \"#utility.yul\":4557:4631   */\n      swap2\n      pop\n        /* \"#utility.yul\":4640:4733   */\n      tag_125\n        /* \"#utility.yul\":4729:4732   */\n      dup3\n        /* \"#utility.yul\":4640:4733   */\n      tag_69\n      jump\t// in\n    tag_125:\n        /* \"#utility.yul\":4758:4760   */\n      0x20\n        /* \"#utility.yul\":4753:4756   */\n      dup3\n        /* \"#utility.yul\":4749:4761   */\n      add\n        /* \"#utility.yul\":4742:4761   */\n      swap1\n      pop\n        /* \"#utility.yul\":4401:4767   */\n      swap2\n      swap1\n      pop\n      jump\t// out\n        /* \"#utility.yul\":4773:5192   */\n    tag_35:\n        /* \"#utility.yul\":4939:4943   */\n      0x00\n        /* \"#utility.yul\":4977:4979   */\n      0x20\n        /* \"#utility.yul\":4966:4975   */\n      dup3\n        /* \"#utility.yul\":4962:4980   */\n      add\n        /* \"#utility.yul\":4954:4980   */\n      swap1\n      pop\n        /* \"#utility.yul\":5026:5035   */\n      dup2\n        /* \"#utility.yul\":5020:5024   */\n      dup2\n        /* \"#utility.yul\":5016:5036   */\n      sub\n        /* \"#utility.yul\":5012:5013   */\n      0x00\n        /* \"#utility.yul\":5001:5010   */\n      dup4\n        /* \"#utility.yul\":4997:5014   */\n      add\n        /* \"#utility.yul\":4990:5037   */\n      mstore\n        /* \"#utility.yul\":5054:5185   */\n      tag_127\n        /* \"#utility.yul\":5180:5184   */\n      dup2\n        /* \"#utility.yul\":5054:5185   */\n      tag_70\n      jump\t// in\n    tag_127:\n        /* \"#utility.yul\":5046:5185   */\n      swap1\n      pop\n        /* \"#utility.yul\":4773:5192   */\n      swap2\n      swap1\n      pop\n      jump\t// out\n        /* \"#utility.yul\":5198:5365   */\n    tag_71:\n        /* \"#utility.yul\":5338:5357   */\n      0x496e76616c69642063616e646964617465000000000000000000000000000000\n        /* \"#utility.yul\":5334:5335   */\n      0x00\n        /* \"#utility.yul\":5326:5332   */\n      dup3\n        /* \"#utility.yul\":5322:5336   */\n      add\n        /* \"#utility.yul\":5315:5358   */\n      mstore\n        /* \"#utility.yul\":5198:5365   */\n      pop\n      jump\t// out\n        /* \"#utility.yul\":5371:5737   */\n    tag_72:\n        /* \"#utility.yul\":5513:5516   */\n      0x00\n        /* \"#utility.yul\":5534:5601   */\n      tag_130\n        /* \"#utility.yul\":5598:5600   */\n      0x11\n        /* \"#utility.yul\":5593:5596   */\n      dup4\n        /* \"#utility.yul\":5534:5601   */\n      tag_66\n      jump\t// in\n    tag_130:\n        /* \"#utility.yul\":5527:5601   */\n      swap2\n      pop\n        /* \"#utility.yul\":5610:5703   */\n      tag_131\n        /* \"#utility.yul\":5699:5702   */\n      dup3\n        /* \"#utility.yul\":5610:5703   */\n      tag_71\n      jump\t// in\n    tag_131:\n        /* \"#utility.yul\":5728:5730   */\n      0x20\n        /* \"#utility.yul\":5723:5726   */\n      dup3\n        /* \"#utility.yul\":5719:5731   */\n      add\n        /* \"#utility.yul\":5712:5731   */\n      swap1\n      pop\n        /* \"#utility.yul\":5371:5737   */\n      swap2\n      swap1\n      pop\n      jump\t// out\n        /* \"#utility.yul\":5743:6162   */\n    tag_39:\n        /* \"#utility.yul\":5909:5913   */\n      0x00\n        /* \"#utility.yul\":5947:5949   */\n      0x20\n        /* \"#utility.yul\":5936:5945   */\n      dup3\n        /* \"#utility.yul\":5932:5950   */\n      add\n        /* \"#utility.yul\":5924:5950   */\n      swap1\n      pop\n        /* \"#utility.yul\":5996:6005   */\n      dup2\n        /* \"#utility.yul\":5990:5994   */\n      dup2\n        /* \"#utility.yul\":5986:6006   */\n      sub\n        /* \"#utility.yul\":5982:5983   */\n      0x00\n        /* \"#utility.yul\":5971:5980   */\n      dup4\n        /* \"#utility.yul\":5967:5984   */\n      add\n        /* \"#utility.yul\":5960:6007   */\n      mstore\n        /* \"#utility.yul\":6024:6155   */\n      tag_133\n        /* \"#utility.yul\":6150:6154   */\n      dup2\n        /* \"#utility.yul\":6024:6155   */\n      tag_72\n      jump\t// in\n    tag_133:\n        /* \"#utility.yul\":6016:6155   */\n      swap1\n      pop\n        /* \"#utility.yul\":5743:6162   */\n      swap2\n      swap1\n      pop\n      jump\t// out\n        /* \"#utility.yul\":6168:6348   */\n    tag_73:\n        /* \"#utility.yul\":6216:6293   */\n      0x4e487b7100000000000000000000000000000000000000000000000000000000\n        /* \"#utility.yul\":6213:6214   */\n      0x00\n        /* \"#utility.yul\":6206:6294   */\n      mstore\n        /* \"#utility.yul\":6313:6317   */\n      0x11\n        /* \"#utility.yul\":6310:6311   */\n      0x04\n        /* \"#utility.yul\":6303:6318   */\n      mstore\n        /* \"#utility.yul\":6337:6341   */\n      0x24\n        /* \"#utility.yul\":6334:6335   */\n      0x00\n        /* \"#utility.yul\":6327:6342   */\n      revert\n        /* \"#utility.yul\":6354:6587   */\n    tag_42:\n        /* \"#utility.yul\":6393:6396   */\n      0x00\n        /* \"#utility.yul\":6416:6440   */\n      tag_136\n        /* \"#utility.yul\":6434:6439   */\n      dup3\n        /* \"#utility.yul\":6416:6440   */\n      tag_56\n      jump\t// in\n    tag_136:\n        /* \"#utility.yul\":6407:6440   */\n      swap2\n      pop\n        /* \"#utility.yul\":6462:6528   */\n      0xffffffffffffffffffffffffffffffffffffffffffffffffffffffffffffffff\n        /* \"#utility.yul\":6455:6460   */\n      dup3\n        /* \"#utility.yul\":6452:6529   */\n      sub\n        /* \"#utility.yul\":6449:6552   */\n      tag_137\n      jumpi\n        /* \"#utility.yul\":6532:6550   */\n      tag_138\n      tag_73\n      jump\t// in\n    tag_138:\n        /* \"#utility.yul\":6449:6552   */\n    tag_137:\n        /* \"#utility.yul\":6579:6580   */\n      0x01\n        /* \"#utility.yul\":6572:6577   */\n      dup3\n        /* \"#utility.yul\":6568:6581   */\n      add\n        /* \"#utility.yul\":6561:6581   */\n      swap1\n      pop\n        /* \"#utility.yul\":6354:6587   */\n      swap2\n      swap1\n      pop\n      jump\t// out\n        /* \"#utility.yul\":6593:6814   */\n    tag_74:\n        /* \"#utility.yul\":6733:6767   */\n      0x4f6e6c792061646d696e2063616e20706572666f726d20746869732061637469\n        /* \"#utility.yul\":6729:6730   */\n      0x00\n        /* \"#utility.yul\":6721:6727   */\n      dup3\n        /* \"#utility.yul\":6717:6731   */\n      add\n        /* \"#utility.yul\":6710:6768   */\n      mstore\n        /* \"#utility.yul\":6802:6806   */\n      0x6f6e000000000000000000000000000000000000000000000000000000000000\n        /* \"#utility.yul\":6797:6799   */\n      0x20\n        /* \"#utility.yul\":6789:6795   */\n      dup3\n        /* \"#utility.yul\":6785:6800   */\n      add\n        /* \"#utility.yul\":6778:6807   */\n      mstore\n        /* \"#utility.yul\":6593:6814   */\n      pop\n      jump\t// out\n        /* \"#utility.yul\":6820:7186   */\n    tag_75:\n        /* \"#utility.yul\":6962:6965   */\n      0x00\n        /* \"#utility.yul\":6983:7050   */\n      tag_141\n        /* \"#utility.yul\":7047:7049   */\n      0x22\n        /* \"#utility.yul\":7042:7045   */\n      dup4\n        /* \"#utility.yul\":6983:7050   */\n      tag_66\n      jump\t// in\n    tag_141:\n        /* \"#utility.yul\":6976:7050   */\n      swap2\n      pop\n        /* \"#utility.yul\":7059:7152   */\n      tag_142\n        /* \"#utility.yul\":7148:7151   */\n      dup3\n        /* \"#utility.yul\":7059:7152   */\n      tag_74\n      jump\t// in\n    tag_142:\n        /* \"#utility.yul\":7177:7179   */\n      0x40\n        /* \"#utility.yul\":7172:7175   */\n      dup3\n        /* \"#utility.yul\":7168:7180   */\n      add\n        /* \"#utility.yul\":7161:7180   */\n      swap1\n      pop\n        /* \"#utility.yul\":6820:7186   */\n      swap2\n      swap1\n      pop\n      jump\t// out\n        /* \"#utility.yul\":7192:7611   */\n    tag_49:\n        /* \"#utility.yul\":7358:7362   */\n      0x00\n        /* \"#utility.yul\":7396:7398   */\n      0x20\n        /* \"#utility.yul\":7385:7394   */\n      dup3\n        /* \"#utility.yul\":7381:7399   */\n      add\n        /* \"#utility.yul\":7373:7399   */\n      swap1\n      pop\n        /* \"#utility.yul\":7445:7454   */\n      dup2\n        /* \"#utility.yul\":7439:7443   */\n      dup2\n        /* \"#utility.yul\":7435:7455   */\n      sub\n        /* \"#utility.yul\":7431:7432   */\n      0x00\n        /* \"#utility.yul\":7420:7429   */\n      dup4\n        /* \"#utility.yul\":7416:7433   */\n      add\n        /* \"#utility.yul\":7409:7456   */\n      mstore\n        /* \"#utility.yul\":7473:7604   */\n      tag_144\n        /* \"#utility.yul\":7599:7603   */\n      dup2\n        /* \"#utility.yul\":7473:7604   */\n      tag_75\n      jump\t// in\n    tag_144:\n        /* \"#utility.yul\":7465:7604   */\n      swap1\n      pop\n        /* \"#utility.yul\":7192:7611   */\n      swap2\n      swap1\n      pop\n      jump\t// out\n\n    auxdata: 0xa26469706673582212209afc85d5a61b0a1c674f0f25018f97c5aa51ea9ae6c70e6d9ae8849dc31faa1764736f6c634300081f0033\n}\n",
				"bytecode": {
					"linkReferences": {},
					"object": "6080604052348015600e575f5ffd5b50335f5f6101000a81548173ffffffffffffffffffffffffffffffffffffffff021916908373ffffffffffffffffffffffffffffffffffffffff16021790555060015f60146101000a81548160ff02191690836001811115607057606f6079565b5b021790555060a6565b7f4e487b71000000000000000000000000000000000000000000000000000000005f52602160045260245ffd5b610771806100b35f395ff3fe608060405234801561000f575f5ffd5b506004361061004a575f3560e01c80630121b93f1461004e5780630dc960151461006a57806319f41a4014610089578063b6890867146100a7575b5f5ffd5b610068600480360381019061006391906103b6565b6100c3565b005b6100726102a3565b6040516100809291906103f0565b60405180910390f35b6100916102b3565b60405161009e919061048a565b60405180910390f35b6100c160048036038101906100bc91906104c6565b6102c5565b005b6001808111156100d6576100d5610417565b5b5f60149054906101000a900460ff1660018111156100f7576100f6610417565b5b14610137576040517f08c379a000000000000000000000000000000000000000000000000000000000815260040161012e9061054b565b60405180910390fd5b60035f3373ffffffffffffffffffffffffffffffffffffffff1673ffffffffffffffffffffffffffffffffffffffff1681526020019081526020015f205f9054906101000a900460ff16156101c1576040517f08c379a00000000000000000000000000000000000000000000000000000000081526004016101b8906105b3565b60405180910390fd5b60018114806101d05750600281145b61020f576040517f08c379a00000000000000000000000000000000000000000000000000000000081526004016102069061061b565b60405180910390fd5b600181036102335760015f81548092919061022990610666565b919050555061024b565b60025f81548092919061024590610666565b91905055505b600160035f3373ffffffffffffffffffffffffffffffffffffffff1673ffffffffffffffffffffffffffffffffffffffff1681526020019081526020015f205f6101000a81548160ff02191690831515021790555050565b5f5f600154600254915091509091565b5f60149054906101000a900460ff1681565b5f5f9054906101000a900473ffffffffffffffffffffffffffffffffffffffff1673ffffffffffffffffffffffffffffffffffffffff163373ffffffffffffffffffffffffffffffffffffffff1614610353576040517f08c379a000000000000000000000000000000000000000000000000000000000815260040161034a9061071d565b60405180910390fd5b805f60146101000a81548160ff0219169083600181111561037757610376610417565b5b021790555050565b5f5ffd5b5f819050919050565b61039581610383565b811461039f575f5ffd5b50565b5f813590506103b08161038c565b92915050565b5f602082840312156103cb576103ca61037f565b5b5f6103d8848285016103a2565b91505092915050565b6103ea81610383565b82525050565b5f6040820190506104035f8301856103e1565b61041060208301846103e1565b9392505050565b7f4e487b71000000000000000000000000000000000000000000000000000000005f52602160045260245ffd5b6002811061045557610454610417565b5b50565b5f81905061046582610444565b919050565b5f61047482610458565b9050919050565b6104848161046a565b82525050565b5f60208201905061049d5f83018461047b565b92915050565b600281106104af575f5ffd5b50565b5f813590506104c0816104a3565b92915050565b5f602082840312156104db576104da61037f565b5b5f6104e8848285016104b2565b91505092915050565b5f82825260208201905092915050565b7f566f74696e672069732063757272656e746c79204f46460000000000000000005f82015250565b5f6105356017836104f1565b915061054082610501565b602082019050919050565b5f6020820190508181035f83015261056281610529565b9050919050565b7f596f75206861766520616c726561647920766f746564000000000000000000005f82015250565b5f61059d6016836104f1565b91506105a882610569565b602082019050919050565b5f6020820190508181035f8301526105ca81610591565b9050919050565b7f496e76616c69642063616e6469646174650000000000000000000000000000005f82015250565b5f6106056011836104f1565b9150610610826105d1565b602082019050919050565b5f6020820190508181035f830152610632816105f9565b9050919050565b7f4e487b71000000000000000000000000000000000000000000000000000000005f52601160045260245ffd5b5f61067082610383565b91507fffffffffffffffffffffffffffffffffffffffffffffffffffffffffffffffff82036106a2576106a1610639565b5b600182019050919050565b7f4f6e6c792061646d696e2063616e20706572666f726d207468697320616374695f8201527f6f6e000000000000000000000000000000000000000000000000000000000000602082015250565b5f6107076022836104f1565b9150610712826106ad565b604082019050919050565b5f6020820190508181035f830152610734816106fb565b905091905056fea26469706673582212209afc85d5a61b0a1c674f0f25018f97c5aa51ea9ae6c70e6d9ae8849dc31faa1764736f6c634300081f0033",
					"opcodes": "PUSH1 0x80 PUSH1 0x40 MSTORE CALLVALUE DUP1 ISZERO PUSH1 0xE JUMPI PUSH0 PUSH0 REVERT JUMPDEST POP CALLER PUSH0 PUSH0 PUSH2 0x100 EXP DUP2 SLOAD DUP2 PUSH20 0xFFFFFFFFFFFFFFFFFFFFFFFFFFFFFFFFFFFFFFFF MUL NOT AND SWAP1 DUP4 PUSH20 0xFFFFFFFFFFFFFFFFFFFFFFFFFFFFFFFFFFFFFFFF AND MUL OR SWAP1 SSTORE POP PUSH1 0x1 PUSH0 PUSH1 0x14 PUSH2 0x100 EXP DUP2 SLOAD DUP2 PUSH1 0xFF MUL NOT AND SWAP1 DUP4 PUSH1 0x1 DUP2 GT ISZERO PUSH1 0x70 JUMPI PUSH1 0x6F PUSH1 0x79 JUMP JUMPDEST JUMPDEST MUL OR SWAP1 SSTORE POP PUSH1 0xA6 JUMP JUMPDEST PUSH32 0x4E487B7100000000000000000000000000000000000000000000000000000000 PUSH0 MSTORE PUSH1 0x21 PUSH1 0x4 MSTORE PUSH1 0x24 PUSH0 REVERT JUMPDEST PUSH2 0x771 DUP1 PUSH2 0xB3 PUSH0 CODECOPY PUSH0 RETURN INVALID PUSH1 0x80 PUSH1 0x40 MSTORE CALLVALUE DUP1 ISZERO PUSH2 0xF JUMPI PUSH0 PUSH0 REVERT JUMPDEST POP PUSH1 0x4 CALLDATASIZE LT PUSH2 0x4A JUMPI PUSH0 CALLDATALOAD PUSH1 0xE0 SHR DUP1 PUSH4 0x121B93F EQ PUSH2 0x4E JUMPI DUP1 PUSH4 0xDC96015 EQ PUSH2 0x6A JUMPI DUP1 PUSH4 0x19F41A40 EQ PUSH2 0x89 JUMPI DUP1 PUSH4 0xB6890867 EQ PUSH2 0xA7 JUMPI JUMPDEST PUSH0 PUSH0 REVERT JUMPDEST PUSH2 0x68 PUSH1 0x4 DUP1 CALLDATASIZE SUB DUP2 ADD SWAP1 PUSH2 0x63 SWAP2 SWAP1 PUSH2 0x3B6 JUMP JUMPDEST PUSH2 0xC3 JUMP JUMPDEST STOP JUMPDEST PUSH2 0x72 PUSH2 0x2A3 JUMP JUMPDEST PUSH1 0x40 MLOAD PUSH2 0x80 SWAP3 SWAP2 SWAP1 PUSH2 0x3F0 JUMP JUMPDEST PUSH1 0x40 MLOAD DUP1 SWAP2 SUB SWAP1 RETURN JUMPDEST PUSH2 0x91 PUSH2 0x2B3 JUMP JUMPDEST PUSH1 0x40 MLOAD PUSH2 0x9E SWAP2 SWAP1 PUSH2 0x48A JUMP JUMPDEST PUSH1 0x40 MLOAD DUP1 SWAP2 SUB SWAP1 RETURN JUMPDEST PUSH2 0xC1 PUSH1 0x4 DUP1 CALLDATASIZE SUB DUP2 ADD SWAP1 PUSH2 0xBC SWAP2 SWAP1 PUSH2 0x4C6 JUMP JUMPDEST PUSH2 0x2C5 JUMP JUMPDEST STOP JUMPDEST PUSH1 0x1 DUP1 DUP2 GT ISZERO PUSH2 0xD6 JUMPI PUSH2 0xD5 PUSH2 0x417 JUMP JUMPDEST JUMPDEST PUSH0 PUSH1 0x14 SWAP1 SLOAD SWAP1 PUSH2 0x100 EXP SWAP1 DIV PUSH1 0xFF AND PUSH1 0x1 DUP2 GT ISZERO PUSH2 0xF7 JUMPI PUSH2 0xF6 PUSH2 0x417 JUMP JUMPDEST JUMPDEST EQ PUSH2 0x137 JUMPI PUSH1 0x40 MLOAD PUSH32 0x8C379A000000000000000000000000000000000000000000000000000000000 DUP2 MSTORE PUSH1 0x4 ADD PUSH2 0x12E SWAP1 PUSH2 0x54B JUMP JUMPDEST PUSH1 0x40 MLOAD DUP1 SWAP2 SUB SWAP1 REVERT JUMPDEST PUSH1 0x3 PUSH0 CALLER PUSH20 0xFFFFFFFFFFFFFFFFFFFFFFFFFFFFFFFFFFFFFFFF AND PUSH20 0xFFFFFFFFFFFFFFFFFFFFFFFFFFFFFFFFFFFFFFFF AND DUP2 MSTORE PUSH1 0x20 ADD SWAP1 DUP2 MSTORE PUSH1 0x20 ADD PUSH0 KECCAK256 PUSH0 SWAP1 SLOAD SWAP1 PUSH2 0x100 EXP SWAP1 DIV PUSH1 0xFF AND ISZERO PUSH2 0x1C1 JUMPI PUSH1 0x40 MLOAD PUSH32 0x8C379A000000000000000000000000000000000000000000000000000000000 DUP2 MSTORE PUSH1 0x4 ADD PUSH2 0x1B8 SWAP1 PUSH2 0x5B3 JUMP JUMPDEST PUSH1 0x40 MLOAD DUP1 SWAP2 SUB SWAP1 REVERT JUMPDEST PUSH1 0x1 DUP2 EQ DUP1 PUSH2 0x1D0 JUMPI POP PUSH1 0x2 DUP2 EQ JUMPDEST PUSH2 0x20F JUMPI PUSH1 0x40 MLOAD PUSH32 0x8C379A000000000000000000000000000000000000000000000000000000000 DUP2 MSTORE PUSH1 0x4 ADD PUSH2 0x206 SWAP1 PUSH2 0x61B JUMP JUMPDEST PUSH1 0x40 MLOAD DUP1 SWAP2 SUB SWAP1 REVERT JUMPDEST PUSH1 0x1 DUP2 SUB PUSH2 0x233 JUMPI PUSH1 0x1 PUSH0 DUP2 SLOAD DUP1 SWAP3 SWAP2 SWAP1 PUSH2 0x229 SWAP1 PUSH2 0x666 JUMP JUMPDEST SWAP2 SWAP1 POP SSTORE POP PUSH2 0x24B JUMP JUMPDEST PUSH1 0x2 PUSH0 DUP2 SLOAD DUP1 SWAP3 SWAP2 SWAP1 PUSH2 0x245 SWAP1 PUSH2 0x666 JUMP JUMPDEST SWAP2 SWAP1 POP SSTORE POP JUMPDEST PUSH1 0x1 PUSH1 0x3 PUSH0 CALLER PUSH20 0xFFFFFFFFFFFFFFFFFFFFFFFFFFFFFFFFFFFFFFFF AND PUSH20 0xFFFFFFFFFFFFFFFFFFFFFFFFFFFFFFFFFFFFFFFF AND DUP2 MSTORE PUSH1 0x20 ADD SWAP1 DUP2 MSTORE PUSH1 0x20 ADD PUSH0 KECCAK256 PUSH0 PUSH2 0x100 EXP DUP2 SLOAD DUP2 PUSH1 0xFF MUL NOT AND SWAP1 DUP4 ISZERO ISZERO MUL OR SWAP1 SSTORE POP POP JUMP JUMPDEST PUSH0 PUSH0 PUSH1 0x1 SLOAD PUSH1 0x2 SLOAD SWAP2 POP SWAP2 POP SWAP1 SWAP2 JUMP JUMPDEST PUSH0 PUSH1 0x14 SWAP1 SLOAD SWAP1 PUSH2 0x100 EXP SWAP1 DIV PUSH1 0xFF AND DUP2 JUMP JUMPDEST PUSH0 PUSH0 SWAP1 SLOAD SWAP1 PUSH2 0x100 EXP SWAP1 DIV PUSH20 0xFFFFFFFFFFFFFFFFFFFFFFFFFFFFFFFFFFFFFFFF AND PUSH20 0xFFFFFFFFFFFFFFFFFFFFFFFFFFFFFFFFFFFFFFFF AND CALLER PUSH20 0xFFFFFFFFFFFFFFFFFFFFFFFFFFFFFFFFFFFFFFFF AND EQ PUSH2 0x353 JUMPI PUSH1 0x40 MLOAD PUSH32 0x8C379A000000000000000000000000000000000000000000000000000000000 DUP2 MSTORE PUSH1 0x4 ADD PUSH2 0x34A SWAP1 PUSH2 0x71D JUMP JUMPDEST PUSH1 0x40 MLOAD DUP1 SWAP2 SUB SWAP1 REVERT JUMPDEST DUP1 PUSH0 PUSH1 0x14 PUSH2 0x100 EXP DUP2 SLOAD DUP2 PUSH1 0xFF MUL NOT AND SWAP1 DUP4 PUSH1 0x1 DUP2 GT ISZERO PUSH2 0x377 JUMPI PUSH2 0x376 PUSH2 0x417 JUMP JUMPDEST JUMPDEST MUL OR SWAP1 SSTORE POP POP JUMP JUMPDEST PUSH0 PUSH0 REVERT JUMPDEST PUSH0 DUP2 SWAP1 POP SWAP2 SWAP1 POP JUMP JUMPDEST PUSH2 0x395 DUP2 PUSH2 0x383 JUMP JUMPDEST DUP2 EQ PUSH2 0x39F JUMPI PUSH0 PUSH0 REVERT JUMPDEST POP JUMP JUMPDEST PUSH0 DUP2 CALLDATALOAD SWAP1 POP PUSH2 0x3B0 DUP2 PUSH2 0x38C JUMP JUMPDEST SWAP3 SWAP2 POP POP JUMP JUMPDEST PUSH0 PUSH1 0x20 DUP3 DUP5 SUB SLT ISZERO PUSH2 0x3CB JUMPI PUSH2 0x3CA PUSH2 0x37F JUMP JUMPDEST JUMPDEST PUSH0 PUSH2 0x3D8 DUP5 DUP3 DUP6 ADD PUSH2 0x3A2 JUMP JUMPDEST SWAP2 POP POP SWAP3 SWAP2 POP POP JUMP JUMPDEST PUSH2 0x3EA DUP2 PUSH2 0x383 JUMP JUMPDEST DUP3 MSTORE POP POP JUMP JUMPDEST PUSH0 PUSH1 0x40 DUP3 ADD SWAP1 POP PUSH2 0x403 PUSH0 DUP4 ADD DUP6 PUSH2 0x3E1 JUMP JUMPDEST PUSH2 0x410 PUSH1 0x20 DUP4 ADD DUP5 PUSH2 0x3E1 JUMP JUMPDEST SWAP4 SWAP3 POP POP POP JUMP JUMPDEST PUSH32 0x4E487B7100000000000000000000000000000000000000000000000000000000 PUSH0 MSTORE PUSH1 0x21 PUSH1 0x4 MSTORE PUSH1 0x24 PUSH0 REVERT JUMPDEST PUSH1 0x2 DUP2 LT PUSH2 0x455 JUMPI PUSH2 0x454 PUSH2 0x417 JUMP JUMPDEST JUMPDEST POP JUMP JUMPDEST PUSH0 DUP2 SWAP1 POP PUSH2 0x465 DUP3 PUSH2 0x444 JUMP JUMPDEST SWAP2 SWAP1 POP JUMP JUMPDEST PUSH0 PUSH2 0x474 DUP3 PUSH2 0x458 JUMP JUMPDEST SWAP1 POP SWAP2 SWAP1 POP JUMP JUMPDEST PUSH2 0x484 DUP2 PUSH2 0x46A JUMP JUMPDEST DUP3 MSTORE POP POP JUMP JUMPDEST PUSH0 PUSH1 0x20 DUP3 ADD SWAP1 POP PUSH2 0x49D PUSH0 DUP4 ADD DUP5 PUSH2 0x47B JUMP JUMPDEST SWAP3 SWAP2 POP POP JUMP JUMPDEST PUSH1 0x2 DUP2 LT PUSH2 0x4AF JUMPI PUSH0 PUSH0 REVERT JUMPDEST POP JUMP JUMPDEST PUSH0 DUP2 CALLDATALOAD SWAP1 POP PUSH2 0x4C0 DUP2 PUSH2 0x4A3 JUMP JUMPDEST SWAP3 SWAP2 POP POP JUMP JUMPDEST PUSH0 PUSH1 0x20 DUP3 DUP5 SUB SLT ISZERO PUSH2 0x4DB JUMPI PUSH2 0x4DA PUSH2 0x37F JUMP JUMPDEST JUMPDEST PUSH0 PUSH2 0x4E8 DUP5 DUP3 DUP6 ADD PUSH2 0x4B2 JUMP JUMPDEST SWAP2 POP POP SWAP3 SWAP2 POP POP JUMP JUMPDEST PUSH0 DUP3 DUP3 MSTORE PUSH1 0x20 DUP3 ADD SWAP1 POP SWAP3 SWAP2 POP POP JUMP JUMPDEST PUSH32 0x566F74696E672069732063757272656E746C79204F4646000000000000000000 PUSH0 DUP3 ADD MSTORE POP JUMP JUMPDEST PUSH0 PUSH2 0x535 PUSH1 0x17 DUP4 PUSH2 0x4F1 JUMP JUMPDEST SWAP2 POP PUSH2 0x540 DUP3 PUSH2 0x501 JUMP JUMPDEST PUSH1 0x20 DUP3 ADD SWAP1 POP SWAP2 SWAP1 POP JUMP JUMPDEST PUSH0 PUSH1 0x20 DUP3 ADD SWAP1 POP DUP2 DUP2 SUB PUSH0 DUP4 ADD MSTORE PUSH2 0x562 DUP2 PUSH2 0x529 JUMP JUMPDEST SWAP1 POP SWAP2 SWAP1 POP JUMP JUMPDEST PUSH32 0x596F75206861766520616C726561647920766F74656400000000000000000000 PUSH0 DUP3 ADD MSTORE POP JUMP JUMPDEST PUSH0 PUSH2 0x59D PUSH1 0x16 DUP4 PUSH2 0x4F1 JUMP JUMPDEST SWAP2 POP PUSH2 0x5A8 DUP3 PUSH2 0x569 JUMP JUMPDEST PUSH1 0x20 DUP3 ADD SWAP1 POP SWAP2 SWAP1 POP JUMP JUMPDEST PUSH0 PUSH1 0x20 DUP3 ADD SWAP1 POP DUP2 DUP2 SUB PUSH0 DUP4 ADD MSTORE PUSH2 0x5CA DUP2 PUSH2 0x591 JUMP JUMPDEST SWAP1 POP SWAP2 SWAP1 POP JUMP JUMPDEST PUSH32 0x496E76616C69642063616E646964617465000000000000000000000000000000 PUSH0 DUP3 ADD MSTORE POP JUMP JUMPDEST PUSH0 PUSH2 0x605 PUSH1 0x11 DUP4 PUSH2 0x4F1 JUMP JUMPDEST SWAP2 POP PUSH2 0x610 DUP3 PUSH2 0x5D1 JUMP JUMPDEST PUSH1 0x20 DUP3 ADD SWAP1 POP SWAP2 SWAP1 POP JUMP JUMPDEST PUSH0 PUSH1 0x20 DUP3 ADD SWAP1 POP DUP2 DUP2 SUB PUSH0 DUP4 ADD MSTORE PUSH2 0x632 DUP2 PUSH2 0x5F9 JUMP JUMPDEST SWAP1 POP SWAP2 SWAP1 POP JUMP JUMPDEST PUSH32 0x4E487B7100000000000000000000000000000000000000000000000000000000 PUSH0 MSTORE PUSH1 0x11 PUSH1 0x4 MSTORE PUSH1 0x24 PUSH0 REVERT JUMPDEST PUSH0 PUSH2 0x670 DUP3 PUSH2 0x383 JUMP JUMPDEST SWAP2 POP PUSH32 0xFFFFFFFFFFFFFFFFFFFFFFFFFFFFFFFFFFFFFFFFFFFFFFFFFFFFFFFFFFFFFFFF DUP3 SUB PUSH2 0x6A2 JUMPI PUSH2 0x6A1 PUSH2 0x639 JUMP JUMPDEST JUMPDEST PUSH1 0x1 DUP3 ADD SWAP1 POP SWAP2 SWAP1 POP JUMP JUMPDEST PUSH32 0x4F6E6C792061646D696E2063616E20706572666F726D20746869732061637469 PUSH0 DUP3 ADD MSTORE PUSH32 0x6F6E000000000000000000000000000000000000000000000000000000000000 PUSH1 0x20 DUP3 ADD MSTORE POP JUMP JUMPDEST PUSH0 PUSH2 0x707 PUSH1 0x22 DUP4 PUSH2 0x4F1 JUMP JUMPDEST SWAP2 POP PUSH2 0x712 DUP3 PUSH2 0x6AD JUMP JUMPDEST PUSH1 0x40 DUP3 ADD SWAP1 POP SWAP2 SWAP1 POP JUMP JUMPDEST PUSH0 PUSH1 0x20 DUP3 ADD SWAP1 POP DUP2 DUP2 SUB PUSH0 DUP4 ADD MSTORE PUSH2 0x734 DUP2 PUSH2 0x6FB JUMP JUMPDEST SWAP1 POP SWAP2 SWAP1 POP JUMP INVALID LOG2 PUSH5 0x6970667358 0x22 SLT KECCAK256 SWAP11 0xFC DUP6 0xD5 0xA6 SHL EXP SHR PUSH8 0x4F0F25018F97C5AA MLOAD 0xEA SWAP11 DUPN 0xC7 0xE PUSH14 0x9AE8849DC31FAA1764736F6C6343 STOP ADDMOD 0x1F STOP CALLER "
				},
				"gasEstimates": {
					"creation": {
						"codeDepositCost": "381000",
						"executionCost": "49028",
						"totalCost": "430028"
					},
					"external": {
						"getVotes()": "infinite",
						"toggleVoting(uint8)": "26907",
						"vote(uint256)": "infinite",
						"votingStatus()": "2626"
					}
				},
				"methodIdentifiers": {
					"getVotes()": "0dc96015",
					"toggleVoting(uint8)": "b6890867",
					"vote(uint256)": "0121b93f",
					"votingStatus()": "19f41a40"
				}
			},
			"storageLayout": {
				"storage": [
					{
						"astId": 3,
						"contract": "VotingContract.sol:TwoCandidateVoting",
						"label": "admin",
						"offset": 0,
						"slot": "0",
						"type": "t_address"
					},
					{
						"astId": 9,
						"contract": "VotingContract.sol:TwoCandidateVoting",
						"label": "votingStatus",
						"offset": 20,
						"slot": "0",
						"type": "t_enum(Status)6"
					},
					{
						"astId": 11,
						"contract": "VotingContract.sol:TwoCandidateVoting",
						"label": "candidate1Votes",
						"offset": 0,
						"slot": "1",
						"type": "t_uint256"
					},
					{
						"astId": 13,
						"contract": "VotingContract.sol:TwoCandidateVoting",
						"label": "candidate2Votes",
						"offset": 0,
						"slot": "2",
						"type": "t_uint256"
					},
					{
						"astId": 17,
						"contract": "VotingContract.sol:TwoCandidateVoting",
						"label": "hasVoted",
						"offset": 0,
						"slot": "3",
						"type": "t_mapping(t_address,t_bool)"
					}
				],
				"types": {
					"t_address": {
						"encoding": "inplace",
						"label": "address",
						"numberOfBytes": "20"
					},
					"t_bool": {
						"encoding": "inplace",
						"label": "bool",
						"numberOfBytes": "1"
					},
					"t_enum(Status)6": {
						"encoding": "inplace",
						"label": "enum TwoCandidateVoting.Status",
						"numberOfBytes": "1"
					},
					"t_mapping(t_address,t_bool)": {
						"encoding": "mapping",
						"key": "t_address",
						"label": "mapping(address => bool)",
						"numberOfBytes": "32",
						"value": "t_bool"
					},
					"t_uint256": {
						"encoding": "inplace",
						"label": "uint256",
						"numberOfBytes": "32"
					}
				}
			},
			"userdoc": {
				"kind": "user",
				"methods": {},
				"version": 1
			}
		}
	}
}